:100000000C9442000C945F000C945F000C945F0011
:100010000C945F000C945F000C945F000C949606A7
:100020000C945F000C945F000C945F000C945F00D4
:100030000C945F000C945F000C9446050C945F00D8
:100040000C945F000C945F000C9458050C945F00B6
:100050000C945F000C945F000C945F000C945F00A4
:100060000C945F000C945F0064026A0271027802D3
:100070007F0287028E026803F502030323034B030A
:100080006803680311241FBECFEFD8E0DEBFCDBFE9
:1000900011E0A0E0B1E0E2EBFEE002C005900D92BD
:1000A000A430B107D9F723E0A4E0B1E001C01D926C
:1000B000A630B207E1F70E9480050C9457070C9414
:1000C0000000FC0161833783268310821382128231
:1000D00056954795558344830895FC01808181118D
:1000E0001AC084819581009731F021E020839383A9
:1000F000828381E00895DF0182E080838BE490E0D9
:10010000938382830680F781E02D61E011968C91C4
:10011000099581E0089580E00895CF93DF93EC0185
:1001200088818230B9F0833041F1813071F58A8164
:100130009B8101979B838A83892B39F582E0888391
:100140008BE490E09B838A83EE81FF8161E089816B
:1001500009951BC08A819B8101979B838A83892B88
:10016000A1F4EE81FF8160E08981099583E08883B5
:100170008BE490E09B838A8308C08A819B810197EE
:100180009B838A83892B09F41882DF91CF9108958C
:100190000F931F93FC01E058FF4F70816717C0F069
:1001A00026C0220F331F220F331FFC01E20FF31F63
:1001B000440F551F440F551FDC01A40FB51F0D91AF
:1001C0001D912D913C9100831183228333836F5FB6
:1001D000262F30E0A9014F5F5F4FE72FF0E04E1769
:1001E0005F07FCF2FC01E058FF4F715070831F91D4
:1001F0000F910895DC0190E00DC0292F30E0FB0144
:10020000E20FF31F80812A0F3B1FF901EF57FF4FC9
:1002100080839F5F933088F3FD01E058FF4F108289
:10022000349651834083329688EE93E091838083A5
:10023000329680ED97E091838083A657BF4F88EB7D
:100240009BE08D939C93089580589F4FFC011082F2
:1002500008959C01FC01E058FF4F7081703270F5E9
:1002600090E02AC0492F50E0F901E40FF51FEF5745
:10027000FF4F808186131FC0A72FB0E0AA0FBB1FBE
:10028000AA0FBB1FA20FB31F6C9311969C931197DB
:10029000FA01ED5BFF4FEE0FFF1FE20FF31F8081AE
:1002A000918113969C938E931297F901E058FF4F1A
:1002B0007F5F708308959F5F9330A0F208950F933E
:1002C0001F93CF938C01C0E026C02C2F30E0F901A2
:1002D000EE0FFF1FEE0FFF1FE00FF11F82819381D2
:1002E000019793838283892BA9F4F801EC57FF4F80
:1002F0000190F081E02D220F331F220F331FD80110
:10030000A20FB31F11968C9109956C2FC8010E9402
:10031000C800C150CF5FF801E058FF4F8081C81777
:10032000A0F2CF911F910F910895FC01A581B68194
:10033000878191E0980F9783A80FB11D6C938185F9
:100340008150978189238783089582E08093C0003C
:1003500080E190E09093C5008093C40086E0809394
:10036000C20088E98093C1000895FC0184E891E00F
:100370009183808380E884831282138224E031E0B9
:100380003683258381871782108673876287168656
:1003900017861486158610AA0E94A5010895FC01EF
:1003A000A081B181828191E0980F9283A80FB11D45
:1003B0006C93848181509281892382830895CF92A6
:1003C000DF92EF92FF920F931F93CF93DF936C0115
:1003D000C62F7A01122F02E0020FD02FD62786E314
:1003E000D82780E006C0F701E80FF11D9081D927DA
:1003F0008F5F8117C0F365E5C6010E9495016EE429
:10040000C6010E94950165E4C6010E94950162E55E
:10041000C6010E949501602FC6010E9495016AE302
:10042000C6010E9495016C2FC6010E949501C0E093
:1004300008C0F701EC0FF11D6081C6010E94950113
:10044000CF5FC117B0F36D2FC6010E949501DF91F8
:10045000CF911F910F91FF90EF90DF90CF90089573
:10046000CF93DF93EC019F818885981709F478C0BA
:100470009091C00095FF74C0ED81FE8191E0980FCE
:100480009887E80FF11D80818093C600898581508F
:1004900098858923888764C0E881F98181E0890F84
:1004A0008B83E90FF11D20819C81915089238B83DF
:1004B000EE858E2F90E08730910508F051C0FC0149
:1004C000EC5CFF4F0C945107253509F049C081E0E1
:1004D0008E8746C02E3419F482E08E8741C01E8676
:1004E0003FC0253419F483E08E873AC01E8638C099
:1004F000223519F484E08E8733C01E8631C02F87E1
:1005000018AA86E328272C8785E08E8729C02A33FE
:1005100019F486E08E8724C01E8622C08F85823023
:1005200090F098A9903210F01E861AC031E0390F71
:1005300038ABFE01E90FF11D208B9C8529272C8704
:1005400081508F870DC08C85281309C0EA85FB85F3
:1005500048A94150BE016F5E7F4F888909951E866C
:100560009B818A81981398CFDF91CF9108950F9343
:100570001F93DC0111967C936E9313965C934E93BC
:10058000129715963C932E93149716961C921697D5
:1005900017961D921D921D921C921A9700E714E95E
:1005A00020E030E01B960D931D932D933C931E97F6
:1005B00050961C921E921F9780E0FB0109951F9197
:1005C0000F9108950F931F93CF93DF93DC0116963D
:1005D000EC914E2F50E04730510508F077C0EC0108
:1005E000FA01E55CFF4F0C945107E881F98181E045
:1005F0000995EC81FD8109956F83788789879A87B2
:1006000082E08E8365C0EC81FD8109950F8118859C
:1006100029853A85DC01CB01801B910BA20BB30B22
:100620000A97A105B10508F453C0E881F98180E07B
:100630000995EC81FD8109956F83788789879A8771
:1006400083E08E8345C0EA81FB810995813051F4B6
:10065000EC81FD8109956F83788789879A8784E08B
:100660008E8336C0EC81FD8109950F81188529851F
:100670003A85DC01CB01801B910BA20BB30B0B85E0
:100680001C852D853E8580179107A207B30700F1D1
:1006900086E08E831DC0EA81FB810995811118C017
:1006A000EC81FD8109950F81188529853A85601BAC
:1006B000710B820B930B2AE330E040E050E00E9484
:1006C0002F07388B2F8785E08E8302C0FC011682AE
:1006D000DF91CF911F910F91089514BC85B385BB15
:1006E0008CE787BD82E080936E0084E085BD08952D
:1006F0001092800082E0809381000895882321F089
:1007000085B1826085B9089585B18D7F85B90895D9
:1007100083B182FB882780F90895609184007091ED
:1007200085007695679580E090E008950E94130714
:100730000895242FAB01682F8BEB92E00E94DF011C
:1007400008950F931F93CF93DF931F92CDB7DEB71A
:100750008330C0F4182FE82FF0E0EE0FFF1FEF5E9C
:10076000FD4F808191810E946D00082F882361F0E8
:10077000198341E0BE016F5F7F4F82E70E949903BA
:10078000802F02C080E000C00F90DF91CF911F91B9
:100790000F910895813609F44DC0FB01823658F45B
:1007A000813549F118F48035E9F00895833549F130
:1007B000803699F10895843609F471C038F4823690
:1007C00009F452C0833609F45BC00895853609F4F4
:1007D0006DC0803F09F07CC040E060E070E00E94A6
:1007E0009903089581E08093100210920F0288B15E
:1007F0008E7F88B908951092100288B1816088B9FF
:1008000008951092100210920F0288B1816088B989
:1008100087E192E00E9424010895433008F458C013
:100820008081809398028181809399028281809354
:100830009A020895433008F44BC0DB01EC91119605
:100840008C91119790E0982F882712962C91822BEB
:10085000E330F0F5F0E0ED5BFF4FEE0FFF1FE95ED8
:10086000FD4F918380830895433090F18081809380
:1008700002018181809301018281809300010895AA
:10088000442331F1E081E33018F5F0E0EE0FFF1F73
:10089000EF5EFD4F808191810E946D00089542308E
:1008A000B8F0618180810E9423070895442381F07C
:1008B000808180930F02882359F0109210021092C9
:1008C0000E0210920D02EAE0F2E010821182128212
:1008D00008958EB38E7F8EBB8091FE0281508093EF
:1008E000FE02811105C082E38093FE0280E283B99B
:1008F000809104028F5F809304028A3F40F010923F
:10090000040240E060E070E080EF0E949903809173
:10091000050290910602009729F001979093060234
:100920008093050280910F02882349F080910D0287
:1009300090910E02019690930E0280930D020895FD
:10094000EF92FF920F931F93CF93DF93CDB7DEB754
:1009500028970FB6F894DEBF0FBECDBF89B182FBDA
:10096000882780F9898389B183FB882780F98A8366
:1009700089B1829581708B8310E041C0E12EF12C0A
:10098000E1E0F0E0EC0FFD1FEE0DFF1D0081F7012F
:10099000E95FFD4F8081081789F181E0810F8F8326
:1009A00081E0011180E0888742E0BE01695F7F4FEE
:1009B00081E70E94990380910F028823D9F00111E9
:1009C00019C0F701E65FFD4F8081811113C01C83C0
:1009D00080910D0290910E029D838E8343E0BE01B3
:1009E0006C5F7F4F85E70E94990381E0F701E65F26
:1009F000FD4F8083F701E95FFD4F00831F5F1330D8
:100A000008F4BCCF28960FB6F894DEBF0FBECDBF5A
:100A1000DF91CF911F910F91FF90EF9008951F9359
:100A2000CF93DF9300D000D0CDB7DEB7182F682F5B
:100A300087E192E00E94290180E01EC0282F30E06B
:100A4000F901E856FD4F9081191315C019838A8367
:100A5000F901ED5BFF4FEE0FFF1FE95EFD4F808157
:100A600091819B838C8344E0BE016F5F7F4F80E761
:100A70000E94990303C08F5F833000F30F900F90A3
:100A80000F900F90DF91CF911F9108951F920F92B9
:100A90000FB60F9211248F9387B5835887BD8EB3FD
:100AA00081608EBB8F910F900FBE0F901F90189595
:100AB0001F920F920FB60F9211242F933F934F93D3
:100AC0005F936F937F938F939F93AF93BF93EF93B6
:100AD000FF936091C6008BEB92E00E94CF01FF91E3
:100AE000EF91BF91AF919F918F917F916F915F91A6
:100AF0004F913F912F910F900FBE0F901F9018951F
:100B0000CF93DF9300D000D01F92CDB7DEB7F8941B
:100B100082E38093FE0280E284B984B1826084B96A
:100B200084B18B7F84B987B1816087B988B18160D6
:100B300088B98AB1837C8AB98BB18C638BB986E022
:100B4000898388E08A838AE08B83E1E1F2E083EBAA
:100B500092E0918380838BEA92E09383828383EA9D
:100B600092E0958384830E946D030E9478036AEC6F
:100B700073E08BEB92E00E94B5012DE833E048E88A
:100B800053E06EE773E08CEE92E00E94B7020E94A1
:100B9000EF0626E933E040E050E060E083EB92E0CE
:100BA0000E94610026E933E040E050E061E08BEA1A
:100BB00092E00E94610026E933E040E050E062E00C
:100BC00083EA92E00E94610041EA53E0BE016F5F58
:100BD0007F4F87E192E00E94FA007894F09B1CC05E
:100BE0000E94690483EB92E00E948D008BEA92E000
:100BF0000E948D0083EA92E00E948D008091100295
:100C0000882341F080910F02811104C087E192E0B6
:100C10000E945F010E94A0048BEB92E00E943002D0
:100C200089B111E0082F007285FF10E08091050264
:100C300090910602892B81F58091FD02181761F1D0
:100C40001C8281E0011180E08D8342E0BE016C5F77
:100C50007F4F81E70E94990301111EC08091FD0220
:100C60008823D1F08091F202811103C081E080934A
:100C7000F20280910F02882349F010920E02109226
:100C80000D02EAE0F2E01082118212828AEF90E017
:100C900090930602809305021093FD028CEE92E081
:100CA0000E94E2028091F2028530C1F5ECEEF2E0A2
:100CB000878590899C838D8342E0BE016C5F7F4F66
:100CC00084E70E94990380911002882329F1809182
:100CD0000F02811121C02091FB023091FC02809112
:100CE000020190E02817390720F48AE00E940F05DE
:100CF00013C08091010190E02817390720F488E0A3
:100D00000E940F0509C08091000190E02817390763
:100D100018F486E00E940F051092F2028091F20210
:100D2000863009F05BCF1092F20258CF1F920F92DB
:100D30000FB60F9211248F939F938091FF028F5FC4
:100D40008093FF028091FF02883210F01092FF0220
:100D50008091FF02811115C080910303882319F04F
:100D60008BB180688BB980910403882319F085B119
:100D7000886085B980910503882319F085B1806169
:100D800085B980910303882349F0909103038091F2
:100D9000FF02981303C08BB18F778BB98091040346
:100DA000882349F0909104038091FF02981303C0B7
:100DB00085B1877F85B980910503882349F090919B
:100DC00005038091FF02981303C085B18F7E85B91A
:100DD0009F918F910F900FBE0F901F9018958AB121
:100DE00080688AB984B1886184B920E00CC0822F00
:100DF00090E0FC01ED5FFC4F34E03083FC01E050FB
:100E0000FD4F30832F5F233090F31092FF0282E07A
:100E10008093B0009CE79093B3008093700084E0CF
:100E20008093B1000895833068F490E0611105C0AB
:100E3000FC01E050FD4F208101C022E0FC01ED5F8C
:100E4000FC4F20830895833048F49FEF960F953030
:100E500028F4E82FF0E0E050FD4F60830895A1E210
:100E60001A2EAA1BBB1BFD010DC0AA1FBB1FEE1F24
:100E7000FF1FA217B307E407F50720F0A21BB30B6F
:100E8000E40BF50B661F771F881F991F1A9469F7EB
:100E900060957095809590959B01AC01BD01CF0147
:100EA0000895EE0FFF1F0590F491E02D0994F8943A
:020EB000FFCF72
:040EB200110E0C0011
:00000001FF
